:020000040800F2
:1000000000000220ED720008C9650008D7650008ED
:10001000DD650008E3650008E965000800000000F0
:10002000000000000000000000000000EF65000874
:10003000FD650008000000000B6600081966000856
:100040003D7300083D7300083D7300083D730008D0
:100050003D7300083D7300083D7300083D730008C0
:100060003D7300083D7300083D7300083D730008B0
:100070003D7300083D7300083D7300083D730008A0
:100080003D7300083D7300083D7300080000000048
:100090000000000000000000000000003D730008A8
:1000A0003D7300083D7300083D7300083D73000870
:1000B0003D7300083D7300083D7300083D73000860
:1000C0003D7300083D7300083D7300083D73000850
:1000D0003D7300083D7300083D73000800000000F8
:1000E0003D7300083D7300083D73000800000000E8
:1000F0000000000000000000000000003D73000848
:10010000000000003D7300083D7300083D730008C7
:1001100000000000000000000000000000000000DF
:100120003D7300083D7300083D7300083D730008EF
:100130003D73000800000000000000000000000007
:10014000000000000000000000000000256600081C
:100150003D7300083D7300083D7300083D730008BF
:100160003D7300083D73000800000000000000001F
:10017000000000000000000000000000000000007F
:10018000000000003D7300080000000000000000B7
:080190003D7300083D730008F7
:1001980010B5054C237833B9044B13B10448AFF3B9
:1001A80000800123237010BD5003002000000000D0
:1001B800C876000808B5034B1BB103490348AFF3E1
:1001C800008008BD0000000054030020C876000825
:1001D80053B94AB9002908BF00281CBF4FF0FF31A6
:1001E8004FF0FF3000F07AB9ADF1080C6DE904CE9C
:1001F80000F006F8DDF804E0DDE9022304B07047FA
:100208002DE9F0478C460D460446089E002B51D137
:100218008A4217466DD9B2FA82FEBEF1000F0BD0A2
:10022800CEF1200C01FA0EF520FA0CFC02FA0EF7BA
:100238004CEA050C00FA0EF44FEA174A250CBCFBF1
:10024800FAF81FFA87F90AFB18CC45EA0C4508FBAF
:1002580009F3AB420AD9ED1908F1FF3280F0238186
:10026800AB4240F22081A8F102083D44ED1AA4B245
:10027800B5FBFAF00AFB105544EA054400FB09F9FE
:10028800A14509D9E41900F1FF3380F00A81A1459D
:1002980040F2078102383C44A4EB090440EA0840D4
:1002A8000021002E61D024FA0EF40023346073601C
:1002B800BDE8F0878B4207D9002E54D0002186E88C
:1002C80021000846BDE8F087B3FA83F1002940F021
:1002D8008E80AB4202D3824200F2FA80841A65EB28
:1002E80003050120AC46002E3FD086E81010BDE87B
:1002F800F08712B90127B7FBF2F7B7FA87FEBEF10C
:10030800000F34D1EB1B3A0C1FFA87FC0121B3FB19
:10031800F2F8250C02FB183345EA03450CFB08F3F9
:10032800AB4207D9ED1908F1FF3002D2AB4200F217
:10033800D1808046ED1AA3B2B5FBF2F002FB10554E
:1003480043EA05440CFB00FCA44507D9E41900F175
:10035800FF3302D2A44500F2B8801846A4EB0C047F
:1003680040EA08409DE731463046BDE8F087CEF1C7
:10037800200405FA0EF307FA0EF720FA04F83A0CEF
:1003880025FA04F448EA0308B4FBF2F14FEA1845E9
:1003980002FB11441FFA87FC45EA044501FB0CF3F4
:1003A800AB4200FA0EF409D9ED1901F1FF3080F0E3
:1003B8008A80AB4240F2878002393D44EB1A1FFA2B
:1003C80088F5B3FBF2F002FB103345EA034500FB66
:1003D8000CF3AB4207D9ED1900F1FF386FD2AB42ED
:1003E8006DD902383D44EB1A40EA01418FE7C1F16B
:1003F800200722FA07F88B4005FA01F448EA0303BC
:1004080020FA07FE4FEA134CFD404EEA040EB5FBF6
:10041800FCF94FEA1E440CFB19551FFA83F844EA0D
:10042800054509FB08F4AC4202FA01F200FA01FAA8
:1004380008D9ED1809F1FF3043D2AC4241D9A9F1EE
:1004480002091D442D1B1FFA8EFEB5FBFCF00CFBA8
:1004580010554EEA054400FB08F8A04507D9E418F2
:1004680000F1FF3529D2A04527D902381C4440EABB
:100478000940A4EB0804A0FB02894C45C6464D463A
:1004880015D312D056B1BAEB0E0364EB050404FA87
:1004980007F7CB401F43CC40376074600021BDE8AC
:1004A800F0871846F8E69046E0E6C245EAD2B8EB8F
:1004B800020E69EB03050138E4E72846D7E7404612
:1004C80091E78146BEE7014678E702383C4445E7B4
:1004D800084608E7A8F102083D442BE7704700BF2B
:1004E80080B500AF0E4A0E4B1B6843F400731360CF
:1004F8000B4A0B4B1B6843F480631360084A084B94
:100508001B6843F480731360032000F04BF900204C
:1005180000F008F806F02CF80023184680BD00BF4C
:10052800003C024080B582B000AF7860124B1A6878
:10053800124B1B7819464FF47A73B3FBF1F3B2FBF5
:10054800F3F3184600F063F90346002B01D00123AA
:100558000EE07B680F2B0AD8002279684FF0FF3035
:1005680000F02BF9064A7B681360002300E00123A2
:1005780018460837BD4680BD180100200400002039
:100588000000002080B400AF064B1B781A46064BCB
:100598001B681344044A136000BFBD465DF8047B22
:1005A800704700BF040000209053002080B400AFC3
:1005B800034B1B681846BD465DF8047B704700BFB7
:1005C8009053002080B584B000AF7860FFF7EEFF4D
:1005D800B8607B68FB60FB68B3F1FF3F05D0094B4F
:1005E8001B781A46FB681344FB6000BFFFF7DEFF69
:1005F8000246BB68D21AFB689A42F7D300BF10378D
:10060800BD4680BD0400002080B485B000AF78608E
:100618007B6803F00703FB600C4BDB68BB60BA68C0
:100628004FF6FF031340BB60FB681A02BB68134315
:1006380043F0BF6343F40033BB60044ABB68D36034
:1006480000BF1437BD465DF8047B704700ED00E03D
:1006580080B400AF044BDB681B0A03F0070318469D
:10066800BD465DF8047B704700ED00E080B483B0C0
:1006780000AF0346FB7197F90730002B0BDB0949E4
:1006880097F907305B09FA7902F01F02012000FA96
:1006980002F241F8232000BF0C37BD465DF8047B09
:1006A800704700BF00E100E080B483B000AF0346AC
:1006B8003960FB7197F90730002B0ADB0D4997F970
:1006C80007303A68D2B21201D2B20B4483F8002341
:1006D8000AE00949FB7903F00F03043B3A68D2B2F8
:1006E8001201D2B20B441A7600BF0C37BD465DF832
:1006F800047B704700E100E000ED00E080B489B0C1
:1007080000AFF860B9607A60FB6803F00703FB612B
:10071800FB69C3F10703042B28BF0423BB61FB69F2
:100728000433062B02D9FB69033B00E000237B61FD
:100738000122BB6902FA03F35A1EBB681A407B699F
:100748009A4001217B6901FA03F3591E7B680B402B
:10075800134318462437BD465DF8047B70470000F4
:1007680080B582B000AF78607B68013BB3F1807FD1
:1007780001D301230FE00A4A7B68013B53600F2134
:100788004FF0FF30FFF790FF054B00229A60044BB3
:1007980007221A60002318460837BD4680BD00BFEF
:1007A80010E000E080B582B000AF78607868FFF7AD
:1007B8002BFF00BF0837BD4680BD80B586B000AFAF
:1007C8000346B9607A60FB7300237B61FFF740FF43
:1007D80078617A68B9687869FFF790FF024697F9F7
:1007E8000F3011461846FFF75FFF00BF1837BD46A8
:1007F80080BD80B582B000AF0346FB7197F9073022
:100808001846FFF733FF00BF0837BD4680BD80B5E7
:1008180082B000AF78607868FFF7A2FF03461846F9
:100828000837BD4680BD000080B489B000AF78604D
:10083800396000237B6100233B610023BB610023F7
:10084800FB6159E10122FB6902FA03F37B613B6812
:100858001A687B6913403B613A697B699A4240F0A8
:1008680048813B685B68012B0BD03B685B68022BB7
:1008780007D03B685B68112B03D03B685B68122B81
:1008880030D17B689B68BB61FB695B00032202FA7D
:1008980003F3DB43BA691340BB613B68DA68FB6961
:1008A8005B0002FA03F3BA691343BB617B68BA6958
:1008B8009A607B685B68BB610122FB6902FA03F3FB
:1008C800DB43BA691340BB613B685B681B0903F0F3
:1008D8000102FB6902FA03F3BA691343BB617B683F
:1008E800BA695A607B68DB68BB61FB695B000322FD
:1008F80002FA03F3DB43BA691340BB613B689A68A9
:10090800FB695B0002FA03F3BA691343BB617B68B6
:10091800BA69DA603B685B68022B03D03B685B68A6
:10092800122B23D1FB69DA087B68083253F822308E
:10093800BB61FB6903F007039B000F2202FA03F374
:10094800DB43BA691340BB613B681A69FB6903F072
:1009580007039B0002FA03F3BA691343BB61FB69FF
:10096800DA087B680832B96943F822107B681B688B
:10097800BB61FB695B00032202FA03F3DB43BA693C
:100988001340BB613B685B6803F00302FB695B00D3
:1009980002FA03F3BA691343BB617B68BA691A6048
:1009A8003B685B6803F08053002B00F0A2800023B3
:1009B800FB60564A554B5B6C43F480435364534B7E
:1009C8005B6C03F48043FB60FB68514AFB699B083E
:1009D800023352F82330BB61FB6903F003039B0029
:1009E8000F2202FA03F3DB43BA691340BB617B6849
:1009F800484A934219D07B68474A934213D07B6890
:100A0800464A93420DD07B68454A934207D07B689B
:100A1800444A934201D1042308E0072306E0032354
:100A280004E0022302E0012300E00023FA6902F057
:100A3800030292009340BA691343BB613449FB69CE
:100A48009B080233BA6941F82320374B1B68BB6106
:100A58003B69DB43BA691340BB613B685B6803F4DD
:100A68008033002B03D0BA693B691343BB612E4A1C
:100A7800BB6913602C4B5B68BB613B69DB43BA699C
:100A88001340BB613B685B6803F40033002B03D061
:100A9800BA693B691343BB61234ABB695360224B64
:100AA8009B68BB613B69DB43BA691340BB613B6828
:100AB8005B6803F48013002B03D0BA693B691343C6
:100AC800BB61194ABB699360174BDB68BB613B6923
:100AD800DB43BA691340BB613B685B6803F40013EE
:100AE800002B03D0BA693B691343BB610E4ABB694B
:100AF800D360FB690133FB61FB690F2B7FF6A2AE64
:100B080000BF2437BD465DF8047B704700380240BB
:100B18000038014000000240000402400008024082
:100B2800000C024000100240003C014080B483B039
:100B380000AF78600B467B8013467B707B78002B78
:100B480003D07A887B689A6103E07B881A047B6803
:100B58009A6100BF0C37BD465DF8047B7047F0B55D
:100B68008FB00AAF78607B68002B01D101230FE1B9
:100B78007B681B68BB607B6893F8BD33DBB2002BD6
:100B880006D17B68002283F8BC23786805F0A8FFAB
:100B98007B68032283F8BD23BB68DB6B03F4807397
:100BA800002B02D17B6800221A617B681B681846FB
:100BB80002F0DDFB7B681B683B607E686D4606F1D2
:100BC80010040FCC0FC50FCC0FC594E8030085E8BF
:100BD8000300331D0ECB386802F0B4FA0346002B2D
:100BE80005D07B68022283F8BD230123D0E07B680F
:100BF8001B680021184602F0CBFB0023FB734AE078
:100C0800FA7B79681346DB009B1A9B000B443D3343
:100C180001221A70FA7B79681346DB009B1A9B0045
:100C28000B443C33FA7B1A70FA7BFB7B98B27968E9
:100C38001346DB009B1A9B000B44423302461A8082
:100C4800FA7B79681346DB009B1A9B000B443F3301
:100C580000221A70FA7B79681346DB009B1A9B0006
:100C68000B44443300221A60FA7B79681346DB0090
:100C78009B1A9B000B44483300221A60FA7B796860
:100C88001346DB009B1A9B000B44503300221A606A
:100C9800FB7B0133FB73FA7B7B685B689A42AFD3BB
:100CA8000023FB7344E0FA7B79681346DB009B1A48
:100CB8009B000B4403F2FD1300221A70FA7B79683B
:100CC8001346DB009B1A9B000B4403F5FE73FA7B6B
:100CD8001A70FA7B79681346DB009B1A9B000B4459
:100CE80003F2FF1300221A70FA7B79681346DB00BF
:100CF8009B1A9B000B4403F5017300221A60FA7BD0
:100D080079681346DB009B1A9B000B4403F50273BA
:100D180000221A60FA7B79681346DB009B1A9B0055
:100D28000B4403F5047300221A60FB7B0133FB7349
:100D3800FA7B7B685B689A42B5D37B681B683B602B
:100D48007E686D4606F110040FCC0FC50FCC0FC599
:100D580094E8030085E80300331D0ECB386802F0E1
:100D680041FB0346002B05D07B68022283F8BD2394
:100D780001230DE07B68002283F838207B6801227C
:100D880083F8BD237B681B68184603F0CBFB002360
:100D980018461437BD46F0BD80B584B000AF786002
:100DA8007B681B68FB607B6893F8BC33012B01D11F
:100DB800022320E07B68012283F8BC237B689B6ABE
:100DC800012B09D17B689B69012B05D0FB689B6BC4
:100DD80043F48032FB689A637B681B68184602F00C
:100DE800B5FA7B681B68184603F079FB7B6800221C
:100DF80083F8BC23002318461037BD4680BD90B544
:100E08008DB000AF78607B681B683B623B6AFB6112
:100E18007B681B68184603F03BFC0346002B40F038
:100E2800AA837B681B68184603F09FFB0346002BC8
:100E380000F0A0837B681B68184603F096FB034606
:100E480003F00203022B07D17B681B687A681268DB
:100E5800526902F002025A617B681B68184603F067
:100E680084FB034603F01003102B61D17B681B68D9
:100E78007A681268926922F010029A613B6A1B6ACA
:100E8800BB61BB6903F00F021346DB009B1A9B0092
:100E980003F5FC737A68134404337B61BB695B0C0C
:100EA80003F00F03022B24D1BA6947F6F0731340FD
:100EB800002B35D07B69D968BB691B099BB2C3F38A
:100EC8000A039BB21A46386A03F0DCF97B69DA68D0
:100ED800BB691B09C3F30A031A447B69DA607B699F
:100EE8009A69BB691B09C3F30A031A447B699A61AF
:100EF80016E0BB695B0C03F00F03062B10D17B686F
:100F080003F5717308221946386A03F0BBF97B6947
:100F18009A69BB691B09C3F30A031A447B699A617E
:100F28007B681B687A681268926942F010029A61BD
:100F38007B681B68184603F018FB034603F400237C
:100F4800B3F5002F6ED100237B627B681B681846BF
:100F580003F01EFBB86262E0BB6A03F00103002BDA
:100F680057D07B681B687A6AD2B21146184603F0DC
:100F780043FB38613B6903F00103002B0CD07B6A0B
:100F88005A01FB69134403F530631A460123936041
:100F9800796A786800F0BEFD3B6903F00803002B0E
:100FA8000CD07B6A5A01FB69134403F530631A4677
:100FB80008239360796A786800F0B8FE3B6903F00B
:100FC8001003002B08D07B6A5A01FB69134403F510
:100FD80030631A46102393603B6903F02003002B0B
:100FE80008D07B6A5A01FB69134403F530631A463B
:100FF800202393603B6903F40053002B09D07B6ADC
:101008005A01FB69134403F530631A464FF4005341
:1010180093607B6A01337B62BB6A5B08BB62BB6A15
:10102800002B99D17B681B68184603F09EFA03468B
:1010380003F48023B3F5802F40F0C1807B681B68E0
:10104800184603F0BFFAB86200237B62B3E0BB6ABC
:1010580003F00103002B00F0A8807B681B687A6A04
:10106800D2B21146184603F0E5FA38613B6903F03D
:101078000103002B58D07B6A03F00F03012202FA08
:1010880003F3FB60FB6903F500631946FB6903F58D
:1010980000635A6BFB68DB4313404B637B6A5A015E
:1010A800FB69134403F510631A46012393607B68B8
:1010B8001B69012B32D179687A6A1346DB009B1AC7
:1010C8009B000B444833196878687A6A1346DB003A
:1010D8009B1A9B00034444331B68194478687A6A56
:1010E8001346DB009B1A9B000344483319607B6A54
:1010F800002B13D179687A6A1346DB009B1A9B0090
:101108000B4450331B68002B08D17B6818687B6838
:1011180003F571731A46012103F0EEFA7B6ADBB21C
:101128001946786805F05DFD3B6903F00803002B5C
:1011380008D07B6A5A01FB69134403F510631A4609
:10114800082393603B6903F01003002B08D07B6AE7
:101158005A01FB69134403F510631A461023936080
:101168003B6903F04003002B08D07B6A5A01FB69F6
:10117800134403F510631A46402393603B6903F058
:101188000203002B08D07B6A5A01FB69134403F55C
:1011980010631A46022393603B6903F08003002B17
:1011A80003D0796A786800F027FC7B6A01337B6298
:1011B800BB6A5B08BB62BB6A002B7FF448AF7B68E5
:1011C8001B68184603F0D1F9034603F00043B3F156
:1011D800004F23D1FB6903F500631A46FB6903F549
:1011E80000635B6823F0010353607B6893F8F43372
:1011F800012B08D17B68002283F8F423002178684A
:1012080000F032FE02E0786805F05AFD7B681B6842
:101218007A681268526902F000425A617B681B685A
:10122800184603F0A2F9034603F40063B3F5006F10
:1012380012D1FB6903F500639B6803F00103012BDE
:1012480002D1786805F014FD7B681B687A6812681B
:10125800526902F400625A617B681B68184603F001
:1012680084F9034603F48053B3F5805F40F0D280DD
:10127800FB6903F500631A46FB6903F500635B68C5
:1012880023F0010353607B681B681021184602F0A5
:101298000FFA0023FB625AE0FB6A5A01FB69134408
:1012A80003F510631A464FF67F339360FB6A5A01C1
:1012B800FB69134403F510631946FB6A5A01FB697D
:1012C800134403F510631B6823F400130B60FB6AD7
:1012D8005A01FB69134403F510631946FB6A5A0166
:1012E800FB69134403F510631B6843F000630B604C
:1012F800FB6A5A01FB69134403F530631A464FF63B
:101308007F339360FB6A5A01FB69134403F530632A
:101318001946FB6A5A01FB69134403F530631B68DD
:1013280023F400130B60FB6A5A01FB69134403F5AD
:1013380030631946FB6A5A01FB69134403F53063AD
:101348001B6843F000630B60FB6A0133FB627B6838
:101358005A68FB6A9A429FD8FB6903F500631A46EC
:10136800FB6903F50063DB6943F00113D3617B6814
:101378001B6B002B18D0FB6903F500631A46FB6949
:1013880003F50063D3F8843043F00B03C2F88430CC
:10139800FB6903F500631A46FB6903F500635B6CA0
:1013A80043F00B03536417E0FB6903F500631A4627
:1013B800FB6903F500635B6943F4005343F02B03B7
:1013C8005361FB6903F500631A46FB6903F5006383
:1013D8001B6943F00B031361FB6903F500631A46AD
:1013E800FB6903F500631B6823F4FE6313607B68E5
:1013F80018687B681B69D9B27B6803F571731A4654
:1014080003F07AF97B681B687A681268526902F4FB
:1014180080525A617B681B68184603F0A6F8034699
:1014280003F40053B3F5005F24D17B681B681846AA
:1014380003F03CF97B681B68184602F09BF90346E9
:101448001A467B68DA607B681C6801F025F901465A
:101458007B68DB68DBB21A46204601F0D5FE786867
:1014680005F0E7FB7B681B687A681268526902F42A
:1014780000525A617B681B68184603F076F80346E9
:1014880003F00803082B0AD1786805F0C4FB7B68D1
:101498001B687A681268526902F008025A617B6810
:1014A8001B68184603F061F8034603F48013B3F58C
:1014B800801F0FD100237B627B6ADBB219467868F4
:1014C80005F01EFC7B681B687A681268526902F492
:1014D80080125A617B681B68184603F046F8034679
:1014E80003F40013B3F5001F0FD100237B627B6A5E
:1014F800DBB21946786805F0F1FB7B681B687A68EF
:101508001268526902F400125A617B681B68184617
:1015180003F02BF8034603F08043B3F1804F0AD160
:10152800786805F0FFFB7B681B687A681268526967
:1015380002F080425A617B681B68184603F015F870
:10154800034603F00403042B15D17B681B685B6812
:10155800BB61BB6903F00403002B02D0786805F077
:10156800EFFB7B681B687A6812685168BA690A439E
:101578005A6000E000BF3437BD4690BD80B582B0E8
:1015880000AF78600B46FB707B6893F8BC33012B87
:1015980001D1022313E07B68012283F8BC237B6816
:1015A800FA7883F838207B681B68FA781146184661
:1015B80002F06DFF7B68002283F8BC2300231846E5
:1015C8000837BD4680BD80B584B000AF7860084656
:1015D80011461A460346FB700B463B801346BB7008
:1015E8000023FB7297F90330002B0FDAFB7803F026
:1015F8000F021346DB009B1A9B0038337A681344AA
:101608000433FB60FB6801225A700FE0FB7803F09B
:101618000F021346DB009B1A9B0003F5FC737A68E4
:1016280013440433FB60FB6800225A70FB7803F014
:101638000F03DAB2FB681A703A88FB689A60FB6895
:10164800BA78DA70FB685B78002B04D0FB681B78EB
:101658009AB2FB68DA80BB78022B02D1FB680022C1
:101668001A717B6893F8BC33012B01D102230EE079
:101678007B68012283F8BC237B681B68F9681846DD
:1016880002F09DF87B68002283F8BC23FB7A184699
:101698001037BD4680BD80B584B000AF78600B467A
:1016A800FB7097F90330002B0FDAFB7803F00F0279
:1016B8001346DB009B1A9B0038337A6813440433C3
:1016C800FB60FB6801225A700FE0FB7803F00F0201
:1016D8001346DB009B1A9B0003F5FC737A681344DE
:1016E8000433FB60FB6800225A70FB7803F00F0399
:1016F800DAB2FB681A707B6893F8BC33012B01D10E
:1017080002230EE07B68012283F8BC237B681B68F8
:10171800F968184602F0DEF87B68002283F8BC23DB
:10172800002318461037BD4680BD80B586B000AF8F
:10173800F8607A603B600B46FB72FB7A03F00F029D
:101748001346DB009B1A9B0003F5FC73FA681344ED
:1017580004337B617B697A68DA607B693A685A612D
:101768007B6900229A617B6900225A70FB7A03F038
:101778000F03DAB27B691A70FB681B69012B02D16F
:101788007A687B691A61FB7A03F00F03002B09D191
:10179800FB681868FB681B69DBB21A46796902F0B6
:1017A800D9FB08E0FB681868FB681B69DBB21A46BE
:1017B800796902F073F9002318461837BD4680BDD1
:1017C80080B483B000AF78600B46FB70FB7803F001
:1017D8000F0279681346DB009B1A9B000B4403F544
:1017E80005731B6818460C37BD465DF8047B7047C7
:1017F80080B586B000AFF8607A603B600B46FB723C
:10180800FB7A03F00F021346DB009B1A9B00383368
:10181800FA68134404337B617B697A68DA607B6910
:101828003A685A617B6900229A617B6901225A7081
:10183800FB7A03F00F03DAB27B691A70FB681B6945
:10184800012B02D17A687B691A61FB7A03F00F03D6
:10185800002B09D1FB681868FB681B69DBB21A46C4
:10186800796902F077FB08E0FB681868FB681B6978
:10187800DBB21A46796902F011F9002318461837C5
:10188800BD4680BD80B584B000AF78600B46FB7064
:10189800FB7803F00F027B685B689A4201D9012349
:1018A80050E097F90330002B0FDAFB7803F00F02B2
:1018B8001346DB009B1A9B0038337A6813440433C1
:1018C800FB60FB6801225A700DE0FA781346DB00D2
:1018D8009B1A9B0003F5FC737A6813440433FB607E
:1018E800FB6800225A70FB6801229A70FB7803F0AB
:1018F8000F03DAB2FB681A707B6893F8BC33012BCC
:1019080001D102231EE07B68012283F8BC237B6897
:101918001B68F968184602F0DEFCFB7803F00F0339
:10192800002B0AD17B6818687B681B69D9B27B6871
:1019380003F571731A4602F0DFFE7B68002283F814
:10194800BC23002318461037BD4680BD80B584B03F
:1019580000AF78600B46FB70FB7803F00F027B68E2
:101968005B689A4201D9012342E097F90330002BC2
:101978000FDAFB7803F00F021346DB009B1A9B007B
:1019880038337A6813440433FB60FB6801225A70C9
:101998000FE0FB7803F00F021346DB009B1A9B0055
:1019A80003F5FC737A6813440433FB60FB68002278
:1019B8005A70FB6800229A70FB7803F00F03DAB2C2
:1019C800FB681A707B6893F8BC33012B01D10223A2
:1019D8000EE07B68012283F8BC237B681B68F968EA
:1019E800184602F0EAFC7B68002283F8BC23002337
:1019F80018461037BD4680BD80B58AB002AF786002
:101A080039607B681B687B617B693B613A68134678
:101A1800DB009B1A9B0038337A6813440433FB605D
:101A2800FB689A69FB685B699A4201D901236DE0FA
:101A3800FB685A69FB689B69D31AFB61FB689A6863
:101A4800FB699A4202D2FB689B68FB61FB6903331E
:101A58009B08BB612BE0FB685A69FB689B69D31A3A
:101A6800FB61FB689A68FB699A4202D2FB689B6833
:101A7800FB61FB6903339B08BB61FB68D9683B6862
:101A8800DAB2FB6998B27B681B69DBB20093034644
:101A9800786902F0C2FBFB68DA68FB691A44FB68E4
:101AA800DA60FB689A69FB691A44FB689A613B68CB
:101AB8005A013B69134403F510639B699AB2BB69E9
:101AC8009A4209D3FB689A69FB685B699A4203D218
:101AD800FB685B69002BBED1FB685A69FB689B6990
:101AE8009A4212D83B6803F00F03012202FA03F36B
:101AF800BB603B6903F5006319463B6903F5006366
:101B08005A6BBB68DB4313404B63002318462037EE
:101B1800BD4680BD80B586B000AF786039607B680F
:101B28001B687B617B693B617B693C3304331B68C1
:101B3800FB603B685A013B69134403F530639B68BB
:101B4800BB607B681B69012B40F0A080BB6803F079
:101B58000803002B15D0FB68724A934240F2DD80DF
:101B6800BB6803F40043002B00F0D7803B685A01A0
:101B78003B69134403F530631A464FF400439360FE
:101B8800CBE0BB6803F02003002B09D03B685A0167
:101B98003B69134403F530631A4620239360BCE085
:101BA800BB6803F02803002B40F0B780FB685D4A50
:101BB80093420FD9BB6803F40043002B0AD03B685B
:101BC8005A013B69134403F530631A464FF4004346
:101BD8009360A2E079683A681346DB009B1A9B0081
:101BE8000B4403F501731A683B6859013B690B44C0
:101BF80003F530631B69C3F31203D11A78683A6896
:101C08001346DB009B1A9B00034403F50573196018
:101C180079683A681346DB009B1A9B000B4403F56E
:101C28000273196878683A681346DB009B1A9B00B0
:101C3800034403F501731B68194478683A6813462E
:101C4800DB009B1A9B00034403F5027319603B6891
:101C5800002B14D179683A681346DB009B1A9B0065
:101C68000B4403F504731B68002B08D17B681868C4
:101C78007B6803F571731A46012102F03DFD3B684C
:101C8800DBB21946786804F091FF46E0FB68264A03
:101C9800934224D1BB6803F40043002B0AD03B686D
:101CA8005A013B69134403F530631A464FF4004365
:101CB800936032E0BB6803F02003002B08D03B6838
:101CC8005A013B69134403F530631A462023936095
:101CD8003B68DBB21946786804F068FF1DE03B6892
:101CE800002B14D179683A681346DB009B1A9B00D5
:101CF8000B4403F504731B68002B08D17B68186834
:101D08007B6803F571731A46002102F0F5FC3B6805
:101D1800DBB21946786804F049FF002318461837E3
:101D2800BD4680BD0A30544F0A31544F80B586B045
:101D380000AF786039607B681B687B617B693B61B9
:101D48007B693C3304331B68FB603B685A013B6981
:101D5800134403F530639B68BB60FB68154A9342E4
:101D68000ED9BB6803F40043002B09D03B685A0125
:101D78003B69134403F530631A464FF400439360FC
:101D8800786804F001FFFB680A4A93420CD97B6823
:101D98001B69012B08D17B6818687B6803F5717390
:101DA8001A46012102F0A8FC002318461837BD4640
:101DB80080BD00BF0A30544F80B485B000AF786052
:101DC8000B46FB7013463B807B681B685B6ABB60F5
:101DD800FB78002B07D17B681B683A881104BA6826
:101DE8000A439A6228E07B681B689B6A1B0CBA68E6
:101DF8001344BB600023FB730DE07B681A68FB7B10
:101E080040339B0013445B681B0CBA681344BB60E7
:101E1800FB7B0133FB73FA7BFB78013B9A42ECD3E3
:101E28007B681968FB78013B3A881004BA6802435A
:101E380040339B000B445A60002318461437BD46B4
:101E48005DF8047B704780B483B000AF78600B46C0
:101E58007B807B681B687A885A62002318460C3797
:101E6800BD465DF8047B704780B483B000AF7860EE
:101E78000B46FB7000BF0C37BD465DF8047B70470E
:101E880080B586B000AF78607B68002B01D1012354
:101E98005BE27B681B6803F00103002B75D0A34B42
:101EA8009B6803F00C03042B0CD0A04B9B6803F039
:101EB8000C03082B12D19D4B5B6803F48003B3F528
:101EC800800F0BD1994B1B6803F40033002B5BD0B8
:101ED8007B685B68002B57D1012336E27B685B681F
:101EE800B3F5803F06D1914A904B1B6843F4803389
:101EF80013601DE07B685B68B3F5A02F0CD18B4A9B
:101F08008A4B1B6843F480231360884A874B1B68FD
:101F180043F4803313600BE0844A844B1B6823F43A
:101F280080331360814A814B1B6823F4802313603C
:101F38007B685B68002B13D0FEF738FB386108E03C
:101F4800FEF734FB02463B69D31A642B01D90323FD
:101F5800FBE1764B1B6803F40033002BF0D014E050
:101F6800FEF724FB386108E0FEF720FB02463B69D8
:101F7800D31A642B01D90323E7E16C4B1B6803F4E4
:101F88000033002BF0D100E000BF7B681B6803F032
:101F98000203002B63D0654B9B6803F00C03002BF6
:101FA8000BD0624B9B6803F00C03082B1CD15F4BD2
:101FB8005B6803F48003002B16D15C4B1B6803F0AD
:101FC8000203002B05D07B68DB68012B01D00123BD
:101FD800BBE15649554B1B6823F0F8027B681B6927
:101FE800DB0013430B603AE07B68DB68002B20D0F2
:101FF8004F4B01221A60FEF7D9FA386108E0FEF764
:10200800D5FA02463B69D31A022B01D903239CE176
:10201800464B1B6803F00203002BF0D04349434BA7
:102028001B6823F0F8027B681B69DB0013430B6015
:1020380015E03F4B00221A60FEF7B8FA386108E055
:10204800FEF7B4FA02463B69D31A022B01D90323DF
:102058007BE1364B1B6803F00203002BF0D17B6851
:102068001B6803F00803002B30D07B685B69002BEA
:1020780016D0304B01221A60FEF798FA386108E052
:10208800FEF794FA02463B69D31A022B01D90323BF
:102098005BE1264B5B6F03F00203002BF0D015E0E9
:1020A800244B00221A60FEF781FA386108E0FEF737
:1020B8007DFA02463B69D31A022B01D9032344E176
:1020C8001A4B5B6F03F00203002BF0D17B681B688F
:1020D80003F00403002B00F0A0800023FB75134BD2
:1020E8001B6C03F08053002B0FD10023BB600F4AF9
:1020F8000E4B1B6C43F0805313640C4B1B6C03F0AA
:102108008053BB60BB680123FB750B4B1B6803F452
:102118008073002B21D1084A074B1B6843F4807356
:102128001360FEF743FA386111E000BF003802403F
:1021380000004742800E474200700040FEF736FA22
:1021480002463B69D31A022B01D90323FDE0814BD8
:102158001B6803F48073002BF0D07B689B68012B0D
:1021680006D17D4A7C4B1B6F43F0010313671CE0CB
:102178007B689B68052B0CD1774A774B1B6F43F024
:1021880004031367744A744B1B6F43F0010313670E
:102198000BE0714A704B1B6F23F0010313676E4A03
:1021A8006D4B1B6F23F0040313677B689B68002B40
:1021B80015D0FEF7FBF938610AE0FEF7F7F9024699
:1021C8003B69D31A41F28832934201D90323BCE018
:1021D800614B1B6F03F00203002BEED014E0FEF7F7
:1021E800E5F938610AE0FEF7E1F902463B69D31ADE
:1021F80041F28832934201D90323A6E0564B1B6F64
:1022080003F00203002BEED1FB7D012B05D1524ACE
:10221800514B1B6C23F0805313647B689B69002B24
:1022280000F092804C4B9B6803F00C03082B5CD0A9
:102238007B689B69022B41D1484B00221A60FEF74C
:10224800B5F9386108E0FEF7B1F902463B69D31ADF
:10225800022B01D9032378E03F4B1B6803F000737E
:10226800002BF0D13C497B68DA697B681B6A1A430A
:102278007B685B6A9B011A437B689B6A5B08013B2E
:102288001B041A437B68DB6A1B0613434B60334B02
:1022980001221A60FEF78AF9386108E0FEF786F92C
:1022A80002463B69D31A022B01D903234DE02A4B7E
:1022B8001B6803F00073002BF0D045E0274B002289
:1022C8001A60FEF773F9386108E0FEF76FF9024605
:1022D8003B69D31A022B01D9032336E01E4B1B6836
:1022E80003F00073002BF0D12EE07B689B69012B73
:1022F80001D1012329E0184B5B68FB60FB6803F4FC
:1023080080027B68DB699A421CD1FB6803F03F02BC
:102318007B681B6A9A4215D1FA6847F6C073134066
:102328007A68526A93420DD1FB6803F440327B68A5
:102338009B6A9A4206D1FB6803F070627B68DB6A8D
:102348009A4201D0012300E0002318461837BD4601
:1023580080BD00BF00700040003802406000474266
:1023680080B584B000AF786039607B68002B01D1FC
:102378000123CCE0684B1B6803F00F023B689A42CC
:102388000CD2654B3A68D2B21A70634B1B6803F0E3
:102398000F023B689A4201D00123B8E07B681B68B2
:1023A80003F00203002B20D07B681B6803F00403B2
:1023B800002B05D0594A594B9B6843F4E05393606E
:1023C8007B681B6803F00803002B05D0534A534B66
:1023D8009B6843F4604393605049504B9B6823F0DB
:1023E800F0027B689B6813438B607B681B6803F073
:1023F8000103002B44D07B685B68012B07D1474B56
:102408001B6803F40033002B19D101237FE07B689C
:102418005B68022B03D07B685B68032B07D13F4BBB
:102428001B6803F00073002B09D101236FE03B4BBD
:102438001B6803F00203002B01D1012367E0374931
:10244800364B9B6823F003027B685B6813438B6001
:10245800FEF7ACF8F8600AE0FEF7A8F80246FB6859
:10246800D31A41F28832934201D903234FE02B4B10
:102478009B6803F00C027B685B689B009A42EBD177
:10248800254B1B6803F00F023B689A420CD9224B7C
:102498003A68D2B21A70204B1B6803F00F023B68EF
:1024A8009A4201D0012332E07B681B6803F00403E1
:1024B800002B08D01949194B9B6823F4E0527B681C
:1024C800DB6813438B607B681B6803F00803002BF1
:1024D80009D01249114B9B6823F460427B681B6941
:1024E800DB0013438B6000F021F801460B4B9B681F
:1024F8001B0903F00F030A4AD35C21FA03F3094AC4
:102508001360094B1B681846FEF70CF800231846A1
:102518001037BD4680BD00BF003C02400038024075
:102528002877000818010020000000202DE9F04F4E
:1025380087B000AF0022FA6000227A610022BA60F8
:1025480000223A61514A926802F00C02042A07D02C
:10255800082A08D0002A40F090804D4B3B618FE05C
:102568004C4B3B618CE0494A526802F03F02FA60EA
:10257800464A526802F48002002A23D0434B5B6823
:102588009B094FF0000440F2FF114FF0000203EAEC
:10259800010304EA02043F4A02FB04F1002202FBA1
:1025A80003F20A443B49A3FB010153181946FB688F
:1025B8004FF000041A462346FDF70AFE03460C4670
:1025C8007B614CE0314A5268920911464FF0000293
:1025D80040F2FF154FF0000605EA010506EA02067B
:1025E800294632464FEA421B4BEAD16B4FEA411A61
:1025F80051465A46AA46B34655465E464D1B62EBBF
:10260800060629463246940144EA91648B015B1A16
:1026180064EB02044FEAC40949EA53794FEAC30854
:1026280043464C4655465E46ED1846EB04062B4697
:102638003446A2027A607A6842EA93527A609B0230
:102648003B6097E8180018462146FB684FF00004E5
:102658001A462346FDF7BCFD03460C467B610B4B2F
:102668005B681B0C03F0030301335B00BB607A69F2
:10267800BB68B2FBF3F33B6102E0054B3B6100BF73
:102688003B6918461C37BD46BDE8F08F003802404C
:102698000024F40040787D0180B400AF034B1B6830
:1026A8001846BD465DF8047B704700BF180100203E
:1026B80080B582B000AF78607B68002B01D1012320
:1026C8001DE07B6893F83D30DBB2002B06D17B68B8
:1026D800002283F83C20786804F06CF87B680222BA
:1026E80083F83D207B681A687B68043319461046D6
:1026F80000F0EEF97B68012283F83D20002318469C
:102708000837BD4680BD80B582B000AF78607B6871
:10271800002B01D101231DE07B6893F83D30DBB22B
:10272800002B06D17B68002283F83C20786800F0F3
:1027380015F87B68022283F83D207B681A687B685D
:1027480004331946104600F0C3F97B68012283F868
:102758003D20002318460837BD4680BD80B483B0AD
:1027680000AF786000BF0C37BD465DF8047B70474A
:1027780080B584B000AF786039607B681B6801223F
:102788003968184600F04AFC7B681B68104A934277
:1027980007D17B681B687A681268526C42F4004261
:1027A8005A647B681B689B6803F00703FB60FB683F
:1027B800062B07D07B681B687A681268126842F09B
:1027C80001021A60002318461037BD4680BD00BFBD
:1027D8000000014080B584B000AFF860B9607A604D
:1027E800FB6893F83C30012B01D10223B4E0FB686D
:1027F800012283F83C20FB68022283F83D207B6895
:102808000C2B00F29F8001A252F823F049280008FF
:102818004D2900084D2900084D290008892800087D
:102828004D2900084D2900084D290008CB2800082B
:102838004D2900084D2900084D2900080B290008DA
:10284800FB681B68B968184600F0C2F9FB681B688A
:10285800FA681268926942F008029A61FB681B687C
:10286800FA681268926922F004029A61FB681B6890
:10287800FA6812689169BA6812690A439A6162E053
:10288800FB681B68B968184600F008FAFB681B6803
:10289800FA681268926942F400629A61FB681B68E0
:1028A800FA681268926922F480629A61FB681B6870
:1028B800FA6812689169BA68126912020A439A6141
:1028C80041E0FB681B68B968184600F053FAFB68DA
:1028D8001B68FA681268D26942F00802DA61FB687C
:1028E8001B68FA681268D26922F00402DA61FB6890
:1028F8001B68FA681268D169BA6812690A43DA6112
:1029080021E0FB681B68B968184600F09DFAFB686F
:102918001B68FA681268D26942F40062DA61FB68DF
:102928001B68FA681268D26922F48062DA61FB686F
:102938001B68FA681268D169BA68126912020A43F8
:10294800DA6100E000BFFB68012283F83D20FB68E4
:10295800002283F83C20002318461037BD4680BD6E
:1029680080B584B000AF786039607B6893F83C30FC
:10297800012B01D10223A6E07B68012283F83C20C9
:102988007B68022283F83D207B681B689B68FB609C
:10299800FB6823F07703FB60FB6823F47F43FB604D
:1029A8007B681B68FA689A603B681B68402B67D095
:1029B800402B0BD8102B73D0102B02D8002B6FD0C4
:1029C80078E0202B6CD0302B6AD073E0702B0DD0C0
:1029D800702B04D8502B33D0602B41D06AE0B3F56C
:1029E800805F66D0B3F5005F17D063E07B68186836
:1029F8003B6899683B685A683B68DB6800F0EEFA08
:102A08007B681B689B68FB60FB6843F07703FB608F
:102A18007B681B68FA689A604CE07B6818683B68BA
:102A280099683B685A683B68DB6800F0D7FA7B68AE
:102A38001B687A681268926842F480429A6039E0AA
:102A48007B6818683B6859683B68DB681A4600F081
:102A58004BFA7B681B685021184600F0A4FA29E05D
:102A68007B6818683B6859683B68DB681A4600F061
:102A78006AFA7B681B686021184600F094FA19E02E
:102A88007B6818683B6859683B68DB681A4600F041
:102A98002BFA7B681B684021184600F084FA09E08D
:102AA8007B681A683B681B681946104600F07BFA79
:102AB80000E000BF7B68012283F83D207B6800228C
:102AC80083F83C20002318461037BD4680BD00001F
:102AD80080B485B000AF786039607B681B68FB60A4
:102AE8007B68344A93420FD07B68B3F1804F0BD098
:102AF8007B68314A934207D07B68304A934203D0BF
:102B08007B682F4A934208D1FB6823F07003FB606F
:102B18003B685B68FA681343FB607B68254A93420D
:102B28001BD07B68B3F1804F17D07B68224A934251
:102B380013D07B68214A93420FD07B68204A934286
:102B48000BD07B681F4A934207D07B681E4A93428A
:102B580003D07B681D4A934208D1FB6823F4407375
:102B6800FB603B68DB68FA681343FB60FB6823F093
:102B780080023B685B691343FB607B68FA681A60F4
:102B88003B689A687B68DA623B681A687B689A6275
:102B98007B68084A934203D13B681A697B681A63C9
:102BA8007B6801225A6100BF1437BD465DF8047B7B
:102BB800704700BF000001400004004000080040CA
:102BC800000C004000400140004401400048014022
:102BD80080B487B000AF786039607B681B6A23F0E7
:102BE80001027B681A627B681B6A7B617B685B6891
:102BF8003B617B689B69FB60FB6823F07003FB60AB
:102C0800FB6823F00303FB603B681B68FA68134307
:102C1800FB607B6923F002037B613B689B687A69F0
:102C280013437B617B681C4A93420CD17B6923F078
:102C380008037B613B68DB687A6913437B617B69C6
:102C480023F004037B617B68134A934211D13B69EB
:102C580023F480733B613B6923F400733B613B6859
:102C68005B693A6913433B613B689B693A69134363
:102C78003B617B683A695A607B68FA689A613B688D
:102C88005A687B685A637B687A691A6200BF1C3786
:102C9800BD465DF8047B70470000014080B487B0F2
:102CA80000AF786039607B681B6A23F010027B688C
:102CB8001A627B681B6A7B617B685B683B617B6827
:102CC8009B69FB60FB6823F4E043FB60FB6823F42B
:102CD8004073FB603B681B681B02FA681343FB6088
:102CE8007B6923F020037B613B689B681B017A6941
:102CF80013437B617B681E4A93420DD17B6923F0A5
:102D080080037B613B68DB681B017A6913437B6145
:102D18007B6923F040037B617B68154A934213D19A
:102D28003B6923F480633B613B6923F400633B61A7
:102D38003B685B699B003A6913433B613B689B694D
:102D48009B003A6913433B617B683A695A607B6828
:102D5800FA689A613B685A687B689A637B687A6903
:102D68001A6200BF1C37BD465DF8047B704700BF80
:102D78000000014080B487B000AF786039607B689C
:102D88001B6A23F480727B681A627B681B6A7B610A
:102D98007B685B683B617B68DB69FB60FB6823F0F1
:102DA8007003FB60FB6823F00303FB603B681B6850
:102DB800FA681343FB607B6923F400737B613B680B
:102DC8009B681B027A6913437B617B681D4A9342A7
:102DD8000DD17B6923F400637B613B68DB681B02D0
:102DE8007A6913437B617B6923F480637B617B6829
:102DF800144A934213D13B6923F480533B613B69E6
:102E080023F400533B613B685B691B013A69134338
:102E18003B613B689B691B013A6913433B617B68D3
:102E28003A695A607B68FA68DA613B685A687B6875
:102E3800DA637B687A691A6200BF1C37BD465DF8A1
:102E4800047B70470000014080B487B000AF786011
:102E580039607B681B6A23F480527B681A627B683E
:102E68001B6A3B617B685B687B617B68DB69FB6035
:102E7800FB6823F4E043FB60FB6823F44073FB60CA
:102E88003B681B681B02FA681343FB603B6923F429
:102E980000533B613B689B681B033A6913433B61E2
:102EA8007B68104A934209D17B6923F480437B6194
:102EB8003B685B699B017A6913437B617B687A692C
:102EC8005A607B68FA68DA613B685A687B681A64FA
:102ED8007B683A691A6200BF1C37BD465DF8047BFF
:102EE800704700BF0000014080B487B000AFF860B1
:102EF800B9607A60FB681B6A7B61FB681B6A23F018
:102F08000102FB681A62FB689B693B613B6923F01D
:102F1800F0033B617B681B013A6913433B617B69A2
:102F280023F00A037B617A69BB6813437B61FB6802
:102F38003A699A61FB687A691A6200BF1C37BD4614
:102F48005DF8047B704780B487B000AFF860B96063
:102F58007A60FB681B6A23F01002FB681A62FB6840
:102F68009B697B61FB681B6A3B617B6923F4704347
:102F78007B617B681B037A6913437B613B6923F0A0
:102F8800A0033B61BB681B013A6913433B61FB68C3
:102F98007A699A61FB683A691A6200BF1C37BD46B4
:102FA8005DF8047B704780B485B000AF7860396005
:102FB8007B689B68FB60FB6823F07003FB603A68E2
:102FC800FB68134343F00703FB607B68FA689A6069
:102FD80000BF1437BD465DF8047B704780B487B0E6
:102FE80000AFF860B9607A603B60FB689B687B6102
:102FF8007B6923F47F437B613B681A027B681A4331
:10300800BB6813437A6913437B61FB687A699A60EA
:1030180000BF1C37BD465DF8047B704780B487B09D
:1030280000AFF860B9607A60BB6803F01F03012243
:1030380002FA03F37B61FB681A6A7B69DB431A4077
:10304800FB681A62FB681A6ABB6803F01F03796899
:1030580001FA03F31A43FB681A6200BF1C37BD4626
:103068005DF8047B7047000080B485B000AF7860DD
:1030780039607B6893F83C30012B01D1022350E082
:103088007B68012283F83C207B68022283F83D207C
:103098007B681B685B68FB607B681B689B68BB6020
:1030A800FB6823F07003FB603B681B68FA681343F6
:1030B800FB607B681B68FA685A607B681B681C4A5F
:1030C800934218D07B681B68B3F1804F13D07B689C
:1030D8001B68184A93420ED07B681B68164A9342B5
:1030E80009D07B681B68154A934204D07B681B682B
:1030F800134A93420CD1BB6823F08003BB603B6842
:103108005B68BA681343BB607B681B68BA689A60DF
:103118007B68012283F83D207B68002283F83C20ED
:10312800002318461437BD465DF8047B704700BF7E
:10313800000001400004004000080040000C00406E
:103148000040014084B080B584B000AF786007F1DA
:103158001C0080E80E003B6B012B22D17B689B6B27
:1031680023F480327B689A637B68DB6823F48403EA
:1031780023F040037A68D3607B68DB6823F440124D
:103188007B68DA60FB6C012B05D17B68DB6843F454
:1031980080127B68DA60786801F010FB0346FB73E5
:1031A8001AE07B68DB6843F040027B68DA60786885
:1031B80001F004FB0346FB733B6C002B06D17B68D4
:1031C8009B6B43F480327B689A6305E07B689B6B5A
:1031D80023F480327B689A63BB6A012B0BD17B682E
:1031E8009B6843F006027B689A607B689B6843F0A3
:1031F80020027B689A60FB7B18461037BD46BDE805
:10320800804004B07047000080B487B000AFF86019
:10321800B9601346FB71FB79022B65D1BB68414A43
:10322800934206D9BB68404A934202D80F237B6178
:1032380062E0BB683C4A934206D9BB683B4A93426A
:1032480002D80E237B6157E0BB68384A934206D9FF
:10325800BB68374A934202D80D237B614CE0BB68B8
:10326800334A934206D9BB68324A934202D80C23A8
:103278007B6141E0BB682F4A934206D9BB682E4A5E
:10328800934202D80B237B6136E0BB682A4A9342FB
:1032980006D9BB68294A934202D80A237B612BE0EE
:1032A800BB68264A934206D9BB68254A934202D88E
:1032B80009237B6120E0BB68214A934206D9BB6899
:1032C800204A934202D808237B6115E0BB681D4A57
:1032D800934206D9BB681C4A934202D807237B61F4
:1032E8000AE006237B6107E0FB79002B02D1092362
:1032F8007B6101E009237B61FB68DB6823F4705282
:10330800FB68DA60FB68DA687B699B0203F4705338
:103318001A43FB68DA60002318461C37BD465DF87F
:10332800047B7047BFACD800BFE1E400FF23F40082
:103338007F7306019F491A01FF2C31013FA44C01FC
:10334800FF356E011FABA601FF47E80180B483B0CB
:1033580000AF78607B689B6843F001027B689A60E5
:10336800002318460C37BD465DF8047B704780B4CF
:1033780083B000AF78607B689B6823F001027B68AC
:103388009A60002318460C37BD465DF8047B7047E9
:1033980080B582B000AF78600B46FB707B68DB6855
:1033A80023F0C0427B68DA60FB78012B06D17B688A
:1033B800DB6843F000527B68DA600BE0FB78002B97
:1033C80006D17B68DB6843F080427B68DA6001E005
:1033D800012303E03220FDF7F5F8002318460837EB
:1033E800BD4680BD84B080B586B000AF786007F177
:1033F800240080E80E000023FB757B68FB60002337
:103408003B6109E07A683B6940339B001344002222
:103418005A603B6901333B613B690E2BF2D9FB6C67
:10342800002B1DD1FB6803F500631A46FB6803F502
:1034380000635B6843F0020353607B689B6B43F453
:1034480000127B689A637B689B6B23F400227B687D
:103458009A637B689B6B23F480227B689A630BE0FA
:103468007B689B6B23F400127B689A637B689B6B79
:1034780043F400227B689A63FB6803F560631A468D
:1034880000231360FB6803F500631A46FB6803F525
:1034980000631B681360BB6B012B0CD1FB6A002B0C
:1034A80004D10021786800F04BF908E00121786820
:1034B80000F046F903E00321786800F041F9102193
:1034C800786800F0F5F80346002B01D00123FB755E
:1034D800786800F013F90346002B01D00123FB752F
:1034E800FB6803F500631A4600231361FB6803F5C4
:1034F80000631A4600235361FB6803F500631A460C
:103508000023D36100233B6143E03B695A01FB6818
:10351800134403F510631B6803F00043B3F1004F35
:1035280018D13B69002B0AD13B695A01FB68134447
:1035380003F510631A464FF00063136013E03B690C
:103548005A01FB68134403F510631A464FF0904381
:10355800136008E03B695A01FB68134403F51063E4
:103568001A46002313603B695A01FB68134403F5AC
:1035780010631A46002313613B695A01FB68134420
:1035880003F510631A464FF67F3393603B690133A6
:103598003B617A6A3B699A42B7D800233B6143E0B2
:1035A8003B695A01FB68134403F530631B6803F059
:1035B8000043B3F1004F18D13B69002B0AD13B6996
:1035C8005A01FB68134403F530631A464FF0006351
:1035D800136013E03B695A01FB68134403F5306339
:1035E8001A464FF09043136008E03B695A01FB68A4
:1035F800134403F530631A46002313603B695A01EC
:10360800FB68134403F530631A46002313613B69D2
:103618005A01FB68134403F530631A464FF67F33AB
:1036280093603B6901333B617A6A3B699A42B7D838
:10363800FB6803F500631A46FB6803F500631B6922
:1036480023F4807313617B6800229A617B686FF0B2
:1036580080425A613B6B002B05D17B689B6943F024
:1036680010027B689A617B689A69104B13437A68E9
:103678009361FB6B002B05D07B689B6943F00802C4
:103688007B689A61FB6C012B07D17B689B6943F0CF
:10369800804343F004037A689361FB7D184618372A
:1036A800BD46BDE8804004B0704700BF00383C808C
:1036B80080B485B000AF786039600023FB603B6858
:1036C8009B0143F020027B681A61FB680133FB60B1
:1036D800FB68094A934201D9032306E07B681B690A
:1036E80003F02003202BF0D0002318461437BD46E2
:1036F8005DF8047B704700BF400D030080B485B0BF
:1037080000AF78600023FB607B6810221A61FB68B9
:103718000133FB60FB68094A934201D9032306E0A1
:103728007B681B6903F01003102BF0D000231846A8
:103738001437BD465DF8047B704700BF400D030099
:1037480080B485B000AF78600B46FB707B68FB6087
:10375800FB6803F500631946FB6803F500631A6804
:10376800FB7813430B60002318461437BD465DF8F9
:10377800047B704780B487B000AF78607B683B619A
:103788003B6903F500639B6803F00603FB60FB6875
:10379800002B02D10023FB750AE0FB68022B02D044
:1037A800FB68062B02D10223FB7501E00F23FB7592
:1037B800FB7D18461C37BD465DF8047B704780B416
:1037C80085B000AF786039607B68FB603B681B7828
:1037D800BB603B685B78012B3CD1FB6803F5006359
:1037E8001846FB6803F50063DA693B681B7803F049
:1037F8000F03012101FA03F39BB21343C361BB68B2
:103808005A01FB68134403F510631B6803F4004373
:10381800002B58D1BB685A01FB68134403F51063A9
:103828001846BB685A01FB68134403F510631A680D
:103838003B689B68C3F30A013B68DB789B04194328
:10384800BB689B050B43134343F0805343F4004389
:10385800036038E0FB6803F500631846FB6803F56E
:103868000063DA693B681B7803F00F03012101FA52
:1038780003F31B041343C361BB685A01FB68134479
:1038880003F530631B6803F40043002B1BD1BB68AE
:103898005A01FB68134403F530631846BB685A01A4
:1038A800FB68134403F530631A683B689B68C3F3ED
:1038B8000A013B68DB789B040B43134343F08053B6
:1038C80043F400430360002318461437BD465DF8EF
:1038D800047B704780B485B000AF786039607B683E
:1038E800FB603B681B78BB603B685B78012B65D14C
:1038F800BB685A01FB68134403F510631B6803F0A7
:103908000043B3F1004F21D1BB685A01FB6813444F
:1039180003F510631946BB685A01FB68134403F5A5
:1039280010631B6843F000630B60BB685A01FB68B7
:10393800134403F510631946BB685A01FB68134426
:1039480003F510631B6843F080430B60FB6803F5C5
:1039580000631846FB6803F50063DA6B3B681B7865
:1039680003F00F03012101FA03F39BB2DB43134079
:10397800C363FB6803F500631846FB6803F500633F
:10398800DA693B681B7803F00F03012101FA03F39E
:103998009BB2DB431340C361BB685A01FB68134405
:1039A80003F510631946BB685A01FB68134403F515
:1039B80010631A68374B13400B6064E0BB685A0108
:1039C800FB68134403F530631B6803F00043B3F14D
:1039D800004F21D1BB685A01FB68134403F53063DB
:1039E8001946BB685A01FB68134403F530631B682A
:1039F80043F000630B60BB685A01FB68134403F58E
:103A080030631946BB685A01FB68134403F53063F9
:103A18001B6843F080430B60FB6803F5006318469E
:103A2800FB6803F50063DA6B3B681B7803F00F0350
:103A3800012101FA03F31B04DB431340C363FB6852
:103A480003F500631846FB6803F50063DA693B6811
:103A58001B7803F00F03012101FA03F31B04DB4376
:103A68001340C361BB685A01FB68134403F5306314
:103A78001946BB685A01FB68134403F530631A689A
:103A8800054B13400B60002318461437BD465DF8FC
:103A9800047B7047007833EC0078F3EF80B58AB088
:103AA80002AFF860B9601346FB71FB68FB61BB6845
:103AB8001B78BB61BB685B78012B40F06C81BB68ED
:103AC8005B69002B35D1BB695A01FB69134403F5C7
:103AD80010631946BB695A01FB69134403F5106367
:103AE8001B6923F0FF5323F4C0130B61BB695A0110
:103AF800FB69134403F510631946BB695A01FB6956
:103B0800134403F510631B6943F400230B61BB697D
:103B18005A01FB69134403F510631946BB695A013E
:103B2800FB69134403F510631B69DB0CDB040B61B1
:103B38007AE0BB695A01FB69134403F5106319461F
:103B4800BB695A01FB69134403F510631B69DB0C5D
:103B5800DB040B61BB695A01FB69134403F510636D
:103B68001946BB695A01FB69134403F510631B69C5
:103B780023F0FF5323F4C0130B61BB695A01FB699F
:103B8800134403F510631846BB695A01FB691344D3
:103B980003F510631A69BB685969BB689B680B44D5
:103BA800591EBB689B68B1FBF3F3D904A14B0B40CA
:103BB80013430361BB695A01FB69134403F510639E
:103BC8001946BB695A01FB69134403F510631A6966
:103BD800BB685B69C3F3120313430B61BB68DB78F3
:103BE800012B21D1BB695A01FB69134403F510630A
:103BF8001946BB695A01FB69134403F510631B6935
:103C080023F0C0430B61BB695A01FB69134403F5F8
:103C180010631946BB695A01FB69134403F5106325
:103C28001B6943F000530B61FB79012B4ED1BB6834
:103C38001B69002B09D0BB695A01FB69134403F5C2
:103C480010631A46BB681B695361BB68DB78012B9C
:103C58002AD1FB6903F500639B6803F48073002B8A
:103C680011D1BB695A01FB69134403F51063194666
:103C7800BB695A01FB69134403F510631B6843F0E1
:103C880000530B6010E0BB695A01FB69134403F54C
:103C980010631946BB695A01FB69134403F51063A5
:103CA8001B6843F080530B60BB695A01FB691344DE
:103CB80003F510631946BB695A01FB69134403F500
:103CC80010631B6843F004430B603CE1BB695A0175
:103CD800FB69134403F510631946BB695A01FB6974
:103CE800134403F510631B6843F004430B60BB687F
:103CF800DB78012B16D0BB685B69002B00F02381B1
:103D0800FB6903F500631846FB6903F500635A6B0A
:103D1800BB681B7803F00F03012101FA03F3134377
:103D2800436310E1FB6903F500639B6803F4807348
:103D3800002B11D1BB695A01FB69134403F51063C9
:103D48001946BB695A01FB69134403F510631B68E4
:103D580043F000530B6010E0BB695A01FB69134440
:103D680003F510631946BB695A01FB69134403F54F
:103D780010631B6843F080530B60BB68D968BB684D
:103D88001A78BB685B6998B2FB7900930346F868B8
:103D980000F043FAD7E0BB695A01FB69134403F505
:103DA80030631946BB695A01FB69134403F5306354
:103DB8001B69DB0CDB040B61BB695A01FB6913440B
:103DC80003F530631946BB695A01FB69134403F5CF
:103DD80030631B6923F0FF5323F4C0130B61BB68E6
:103DE8005B69002B28D1BB695A01FB69134403F5B1
:103DF80030631946BB695A01FB69134403F5306304
:103E08001A69BB689B68C3F3120313430B61BB6950
:103E18005A01FB69134403F530631946BB695A011B
:103E2800FB69134403F530631B6943F400230B61FA
:103E380038E000BF0000F81FBB685A69BB689B6880
:103E480013445A1EBB689B68B2FBF3F3FB82BB6941
:103E58005A01FB69134403F530631846BB695A01DC
:103E6800FB69134403F530631A69FB8AD904384B9C
:103E78000B4013430361BB695A01FB69134403F503
:103E880030631846BB695A01FB69134403F5306374
:103E98001A69BB689B68F98A01FB03F3C3F3120331
:103EA80013430361FB79012B0DD1BB68DB68002B41
:103EB80009D0BB695A01FB69134403F530631A46FC
:103EC800BB68DB685361BB68DB78012B2AD1FB69CF
:103ED80003F500639B6803F48073002B11D1BB6961
:103EE8005A01FB69134403F530631946BB695A014B
:103EF800FB69134403F530631B6843F000530B6000
:103F080010E0BB695A01FB69134403F53063194695
:103F1800BB695A01FB69134403F530631B6843F01E
:103F280080530B60BB695A01FB69134403F5306386
:103F38001946BB695A01FB69134403F530631B68D2
:103F480043F004430B60002318462037BD4680BD6C
:103F58000000F81F80B487B000AFF860B96013465E
:103F6800FB71FB687B61BB681B783B61BB685B7856
:103F7800012B40F0D880BB685B69002B35D13B69C9
:103F88005A017B69134403F5106319463B695A01CA
:103F98007B69134403F510631B6923F0FF5323F473
:103FA800C0130B613B695A017B69134403F5106325
:103FB80019463B695A017B69134403F510631B6971
:103FC80043F400230B613B695A017B69134403F5F1
:103FD800106319463B695A017B69134403F5106362
:103FE8001B69DB0CDB040B6152E03B695A017B69FE
:103FF800134403F5106319463B695A017B6913445E
:1040080003F510631B69DB0CDB040B613B695A0188
:104018007B69134403F5106319463B695A017B69B0
:10402800134403F510631B6923F0FF5323F4C013F3
:104038000B61BB685A69BB689B689A4203D9BB6825
:104048009A68BB685A613B695A017B69134403F556
:10405800106319463B695A017B69134403F51063E1
:104068001B6943F400230B613B695A017B691344C4
:1040780003F5106319463B695A017B69134403F53C
:1040880010631A69BB685B69C3F3120313430B61BE
:10409800FB79012B1FD1BB681B69002B09D03B6939
:1040A8005A017B69134403F510631A46BB681B6900
:1040B80053613B695A017B69134403F51063194640
:1040C8003B695A017B69134403F510631B6843F08D
:1040D80004430B609AE03B695A017B69134403F57A
:1040E800106319463B695A017B69134403F5106351
:1040F8001B6843F004430B60BB685B69002B00F04E
:1041080085807B6903F5006318467B6903F50063C6
:104118005A6BBB681B7803F00F03012101FA03F304
:104128001343436372E03B695A017B69134403F507
:10413800306319463B695A017B69134403F53063C0
:104148001B69DB0CDB040B613B695A017B69134477
:1041580003F5306319463B695A017B69134403F53B
:1041680030631B6923F0FF5323F4C0130B61BB6852
:104178005B69002B03D0BB689A68BB685A613B69CE
:104188005A017B69134403F5306319463B695A01A8
:104198007B69134403F530631B6943F400230B6107
:1041A8003B695A017B69134403F5306319463B693F
:1041B8005A017B69134403F530631A69BB689B682D
:1041C800C3F3120313430B61FB79012B0DD1BB68B9
:1041D800DB68002B09D03B695A017B69134403F55E
:1041E80030631A46BB68DB6853613B695A017B69D7
:1041F800134403F5306319463B695A017B6913443C
:1042080003F530631B6843F004430B600023184632
:104218001C37BD465DF8047B704780B489B000AF99
:10422800F860B96011461A460B46FB711346BB800D
:10423800FB687B61BB68FB6197F82830002B1AD1BB
:10424800BB8803339B083B610023BB610FE0FB790C
:104258001A037B69134403F580531A46FB691B68EC
:104268001360FB690433FB61BB690133BB61BA6945
:104278003B699A42EBD3002318462437BD465DF8C4
:10428800047B704780B489B000AFF860B96013460A
:10429800FB80FB687B61BB68FB61FB8803339B0881
:1042A8003B610023BB610BE07B6903F580531A680F
:1042B800FB691A60FB690433FB61BB690133BB61AD
:1042C800BA693B699A42EFD3FB6918462437BD4661
:1042D8005DF8047B704780B485B000AF78603960C2
:1042E8007B68FB603B681B78BB603B685B78012B95
:1042F8002ED1BB685A01FB68134403F510631B6891
:10430800002B13DBBB68002B10D0BB685A01FB687D
:10431800134403F510631946BB685A01FB6813443C
:1043280003F510631B6823F080430B60BB685A01D8
:10433800FB68134403F510631946BB685A01FB6810
:10434800134403F510631B6843F400130B602DE05E
:10435800BB685A01FB68134403F530631B68002BE4
:1043680013DBBB68002B10D0BB685A01FB681344F1
:1043780003F530631946BB685A01FB68134403F51B
:1043880030631B6823F080430B60BB685A01FB68ED
:10439800134403F530631946BB685A01FB6813449C
:1043A80003F530631B6843F400130B6000231846C1
:1043B8001437BD465DF8047B704780B485B000AF04
:1043C800786039607B68FB603B681B78BB603B6842
:1043D8005B78012B2AD1BB685A01FB68134403F5AB
:1043E80010631946BB685A01FB68134403F5106350
:1043F8001B6823F400130B603B68DB78032B03D0A6
:104408003B68DB78022B3BD1BB685A01FB6813443D
:1044180003F510631946BB685A01FB68134403F59A
:1044280010631B6843F080530B6029E0BB685A0196
:10443800FB68134403F530631946BB685A01FB68EF
:10444800134403F530631B6823F400130B603B68C7
:10445800DB78032B03D03B68DB78022B10D1BB68D9
:104468005A01FB68134403F530631946BB685A01C7
:10447800FB68134403F530631B6843F080530B60FB
:10448800002318461437BD465DF8047B704780B496
:1044980085B000AF78600B46FB707B68FB60FB68FB
:1044A80003F500631A46FB6803F500631B6823F4F1
:1044B800FE631360FB6803F500631946FB6803F5A8
:1044C80000631A68FB781B0103F4FE6313430B6057
:1044D800002318461437BD465DF8047B704780B446
:1044E80085B000AF78607B68FB60FB6803F56063AC
:1044F8001A46FB6803F560631B6823F00303136027
:10450800FB6803F500631A46FB6803F500635B6804
:1045180023F002035360002318461437BD465DF8A4
:10452800047B704780B485B000AF78607B68FB601F
:10453800FB6803F560631A46FB6803F560631B6854
:1045480023F003031360FB6803F500631A46FB6856
:1045580003F500635B6843F00203536000231846C9
:104568001437BD465DF8047B704780B485B000AF52
:1045780078607B685B69FB607B689B69FA681340BD
:10458800FB60FB6818461437BD465DF8047B70472E
:1045980080B485B000AF78607B68FB60FB6803F58A
:1045A80000639B69BB60FB6803F50063DB69BA685D
:1045B8001340BB60BB681B0C18461437BD465DF83A
:1045C800047B704780B485B000AF78607B68FB607F
:1045D800FB6803F500639B69BB60FB6803F5006338
:1045E800DB69BA681340BB60BB689BB218461437D6
:1045F800BD465DF8047B704780B485B000AF786035
:104608000B46FB707B68FB60FB785A01FB68134420
:1046180003F530639B68BB60FB6803F500635B6967
:10462800BA681340BB60BB6818461437BD465DF8CE
:10463800047B704780B487B000AF78600B46FB708E
:104648007B687B617B6903F500631B693B617B6960
:1046580003F500635B6BFB60FB7803F00F03FA68FC
:1046680022FA03F3DB01DBB23A6913433B61FB78BF
:104678005A017B69134403F510639A683B69134038
:10468800BB60BB6818461C37BD465DF8047B7047A5
:1046980080B483B000AF78607B685B6903F0010386
:1046A80018460C37BD465DF8047B704780B485B06A
:1046B80000AF78607B68FB60FB6803F510631A46FF
:1046C800FB6803F510631B6823F4FF6323F00703FB
:1046D8001360FB6803F500631A46FB6803F5006383
:1046E8005B6843F480735360002318461437BD4653
:1046F8005DF8047B7047000080B487B000AFF860B5
:104708000B467A60FB72FB687B61FB683C330433C1
:104718001B683B613B69284A93420AD97B6903F5C8
:1047280030631B6803F00043B3F1004F01D100234D
:104738003BE07B6903F530631A46002313617B690C
:1047480003F530631A467B6903F530631B6943F44C
:10475800002313617B6903F530631A467B6903F50F
:1047680030631B6943F0180313617B6903F53063F9
:104778001A467B6903F530631B6943F0C043136134
:10478800FB7A012B10D17B6903F530631A467B68ED
:1047980053617B6903F530631A467B6903F530631F
:1047A8001B6843F080231360002318461C37BD465E
:1047B8005DF8047B704700BF0A30544F80B485B061
:1047C80000AF78600023FB60FB680133FB60FB6887
:1047D800134A934201D903231BE07B681B69002B12
:1047E800F2DA0023FB607B681B6943F001027B68F7
:1047F8001A61FB680133FB60FB68094A934201D9DF
:10480800032306E07B681B6903F00103012BF0D04A
:10481800002318461437BD465DF8047B704700BF77
:10482800400D030080B584B000AF78600B46FB7084
:104838004FF4077002F0AAFD0346FB60FB68002BEB
:1048480005D17B680022C3F8BC22022366E07B689E
:10485800FA68C3F8BC227B681B7C002B19D14FF483
:10486800007302228121786802F0DFFA7B68012256
:104878001A874FF4007302220121786802F0D5FAF2
:104888007B680122A3F878217B681022A3F84E20C8
:1048980016E0402302228121786802F0C6FA7B687C
:1048A80001221A87402302220121786802F0BDFA0A
:1048B8007B680122A3F878217B681022A3F84E2098
:1048C800082303228221786802F0AFFA7B6801226C
:1048D800A3F84C207B68D3F8C0321B689847FB6864
:1048E8000022C3F81422FB680022C3F818227B6850
:1048F8001B7C002B09D1FB68D3F804224FF400730A
:104908000121786802F080FB07E0FB68D3F80422F5
:1049180040230121786802F077FB002318461037FE
:10492800BD4680BD80B584B000AF78600B46FB7093
:104938000023FB738121786802F09DFA7B680022CE
:104948001A870121786802F096FA7B680022A3F89A
:1049580078218221786802F08EFA7B680022A3F819
:104968004C207B680022A3F84E207B68D3F8BC3229
:10497800002B0ED07B68D3F8C0325B6898477B6801
:10498800D3F8BC32184602F009FD7B680022C3F850
:10499800BC22FB7B18461037BD4680BD80B586B06B
:1049A80000AF786039607B68D3F8BC323B61002384
:1049B800FB730023BB810023FB753B681B7803F066
:1049C8006003002B3AD0202B40F097803B68DB88AF
:1049D800002B29D03B681B785BB2002B11DA7B686F
:1049E800D3F8C0329B683A68507839693A68D288F7
:1049F800984739693B68DB881A46786801F06DFA90
:104A080082E03B685A783B6983F800223B68DB8880
:104A1800DAB23B6983F8012239693B68DB881A46B8
:104A2800786801F086FA6FE07B68D3F8C0329B683B
:104A38003A68507800223968984765E03B685B78A7
:104A48000B2B4FD801A252F823F000BF854A00086B
:104A5800FB4A0008ED4A0008ED4A0008ED4A000844
:104A6800ED4A0008ED4A0008ED4A0008ED4A000842
:104A7800ED4A0008AD4A0008D54A00087B6893F85B
:104A88009C32032B07D107F10C03022219467868E0
:104A980001F023FA30E03968786801F0ADF90323B2
:104AA800FB7529E07B6893F89C32032B07D107F14B
:104AB8000F0301221946786801F00FFA1CE03968E3
:104AC800786801F099F90323FB7515E07B6893F882
:104AD8009C32032B0FD03968786801F08DF90323D5
:104AE800FB7508E03968786801F086F90323FB75DF
:104AF80002E000BF08E000BF06E03968786801F00E
:104B08007BF90323FB7500BFFB7D18461837BD46AC
:104B180080BD00BF80B584B000AF78600B46FB70E5
:104B28007B68D3F8C432FB607B68D3F8BC32002BB7
:104B380001D1032349E07B68D3F8BC32BB60FA7823
:104B4800796813469B0013449B000B4418331B6879
:104B5800002B29D0FA78796813469B0013449B00F0
:104B68000B4418331A68F978F8680B46DB005B1AAF
:104B78009B00034444331B68B2FBF3F103FB01F3CE
:104B8800D31A002B10D1FA78796813469B00134486
:104B98009B000B44183300221A60F9780023002286
:104BA800786802F010FA0FE0BB680022C3F81422FC
:104BB8007B68D3F8C0321B69BA68D2F80802BA68B1
:104BC80002F50471FA789847002318461037BD4655
:104BD80080BD80B584B000AF78600B46FB707B6801
:104BE800D3F8BC32FB607B68D3F8BC32002B01D110
:104BF800032315E0FB781946786802F026FA024686
:104C0800FB68C3F80C227B68D3F8C032DB68FA680B
:104C1800D2F80402FA6802F5037211469847002395
:104C280018461037BD4680BD80B584B000AF7860A7
:104C38007B68D3F8BC32FB607B68D3F8C032002BAA
:104C480015D0FB6893F80032FF2B10D07B68D3F89F
:104C5800C0329B68FA6892F80002F968FA6892F81C
:104C6800012292B29847FB68FF2283F800220023B2
:104C780018461037BD4680BD80B483B000AF786059
:104C88007B6843221A80034B18460C37BD465DF8F3
:104C9800047B70479000002080B483B000AF786038
:104CA8007B6843221A80034B18460C37BD465DF8D3
:104CB800047B70474C00002080B483B000AF78605C
:104CC8007B6843221A80034B18460C37BD465DF8B3
:104CD800047B7047D400002080B483B000AF7860B4
:104CE8007B680A221A80034B18460C37BD465DF8CC
:104CF800047B70470800002080B483B000AF786060
:104D080039603B68002B01D1032304E07B683A68D3
:104D1800C3F8C022002318460C37BD465DF8047B53
:104D2800704780B487B000AFF860B9607A60FB68FC
:104D3800D3F8BC327B617B69BA68C3F808227B6907
:104D48007A68C3F81022002318461C37BD465DF860
:104D5800047B704780B485B000AF786039607B68A9
:104D6800D3F8BC32FB60FB683A68C3F8042200231E
:104D780018461437BD465DF8047B704780B584B08B
:104D880000AF78607B68D3F8BC32FB607B68D3F8EF
:104D9800BC32002B01D1032316E07B681B7C002B5F
:104DA80009D1FB68D3F804224FF400730121786815
:104DB80002F02AF907E0FB68D3F804224023012116
:104DC800786802F021F9002318461037BD4680BDE7
:104DD80080B586B000AFF860B9601346FB71FB6818
:104DE800002B01D1032325E0FB68D3F8B832002B50
:104DF80003D0FB680022C3F8B822FB68D3F8CC3292
:104E0800002B03D0FB680022C3F8CC22BB68002B20
:104E180003D0FB68BA68C3F8B422FB68012283F8A0
:104E28009C22FB68FA791A70F86801F097FF03462C
:104E3800FB75FB7D18461837BD4680BD80B584B02C
:104E480000AF786039600023FB813B68002B01D1FB
:104E5800032310E07B683A68C3F8B8227B68D3F86C
:104E6800B8329B6A07F10E021046984702467B68E3
:104E7800C3F8CC22002318461037BD4680BD80B544
:104E880082B000AF7860786801F0B4FF0346184636
:104E98000837BD4680BD80B483B000AF786000237A
:104EA80018460C37BD465DF8047B704780B584B062
:104EB80000AF78600B46FB700323FB737B68D3F865
:104EC800B832002B09D07B68D3F8B8321B68FA785F
:104ED8001146786898470346FB73FB7B18461037E2
:104EE800BD4680BD80B582B000AF78600B46FB70D0
:104EF8007B68D3F8B832002B07D07B68D3F8B83278
:104F08005B68FA781146786898470023184608378E
:104F1800BD4680BD80B584B000AF786039607B68DD
:104F280003F2AA233968184600F02CFF7B68012297
:104F3800C3F894227B68B3F8B0321A467B68C3F88A
:104F480098227B6893F8AA3203F01F03012B0ED036
:104F5800012B02D3022B14D01DE07B6803F2AA2395
:104F68001946786800F018FA0346FB7320E07B685E
:104F780003F2AA231946786800F07CFA0346FB730B
:104F880016E07B6803F2AA231946786800F0B8FA9D
:104F98000346FB730CE07B6893F8AA3223F07F0387
:104FA800DBB21946786801F085FF0346FB7300BF42
:104FB800FB7B18461037BD4680BD80B586B000AF74
:104FC800F8600B467A60FB72FB7A002B37D1FB68DE
:104FD80003F5AA733B61FB68D3F89432032B4AD1DB
:104FE8003B699A683B69DB689A4213D93B699A68BE
:104FF8003B69DB68D21A3B699A603B69DA683B69AE
:105008009B68934228BF13461A467968F86800F0EF
:10501800ADFF30E0FB68D3F8B8321B69002B0AD02B
:10502800FB6893F89C32032B05D1FB68D3F8B832A0
:105038001B69F8689847F86800F0A9FF1BE0FB684F
:10504800D3F8B8329B69002B13D0FB6893F89C32D5
:10505800032B0ED1FB68D3F8B8329B69FA7A114654
:10506800F86898470346FB75FB7D002B03D0FB7D52
:1050780002E0032300E0002318461837BD4680BD30
:1050880080B586B000AFF8600B467A60FB72FB7A99
:10509800002B6AD1FB6814333B61FB68D3F8943268
:1050A800022B55D13B699A683B69DB689A4214D94F
:1050B8003B699A683B69DB68D21A3B699A603B692D
:1050C8009B681A467968F86800F022FF00230022DE
:1050D8000021F86801F098FF3AE03B69DA683B691B
:1050E8009B689A421CD13B695A683B69DB689A42C3
:1050F80016D33B695A68FB68D3F898329A420FD2A4
:1051080000220021F86800F003FFFB680022C3F8C2
:105118009822002300220021F86801F075FF17E0AB
:10512800FB68D3F8B832DB68002B0AD0FB6893F829
:105138009C32032B05D1FB68D3F8B832DB68F868DA
:1051480098478021F86801F0B5FEF86800F032FF52
:10515800FB6893F8A032012B23D1F868FFF79BFE78
:10516800FB68002283F8A0221BE0FB68D3F8B83262
:105178005B69002B13D0FB6893F89C32032B0ED18C
:10518800FB68D3F8B8325B69FA7A1146F868984731
:105198000346FB75FB7D002B03D0FB7D02E0032358
:1051A80000E0002318461837BD4680BD80B582B0A0
:1051B80000AF78607B68012283F89C227B6800221C
:1051C800C3F894227B6800225A607B680022C3F8E7
:1051D800A4227B68D3F8BC32002B09D07B68D3F8B3
:1051E800B8325B687A685268D2B2114678689847D4
:1051F800402300220021786801F017FE7B68012215
:10520800A3F864217B684022C3F860214023002270
:105218008021786801F009FE7B6801229A847B6806
:1052280040221A62002318460837BD4680BD80B464
:1052380083B000AF78600B46FB707B68FA781A740D
:10524800002318460C37BD465DF8047B704780B4D0
:1052580083B000AF78607B6893F89C227B6883F802
:105268009D227B68042283F89C22002318460C3771
:10527800BD465DF8047B704780B483B000AF7860AA
:105288007B6893F89C32042B05D17B6893F89D22A8
:105298007B6883F89C22002318460C37BD465DF8CE
:1052A800047B704780B582B000AF78607B6893F864
:1052B8009C32032B0BD17B68D3F8B832DB69002B07
:1052C80005D07B68D3F8B832DB6978689847002343
:1052D80018460837BD4680BD80B483B000AF7860FB
:1052E8000B46FB70002318460C37BD465DF8047B5F
:1052F800704780B483B000AF78600B46FB70002322
:1053080018460C37BD465DF8047B704780B483B0FF
:1053180000AF7860002318460C37BD465DF8047B63
:10532800704780B582B000AF78607B68012283F84F
:105338009C227B68D3F8B832002B09D07B68D3F85D
:10534800B8325B687A685268D2B211467868984772
:10535800002318460837BD4680BD80B487B000AF2B
:1053680078607B687B617B691B787B827B69013312
:105378007B617B691B783B823B8A1B021AB2B7F9B7
:10538800123013431BB2FB81FB8918461C37BD46FC
:105398005DF8047B7047000080B584B000AF78608A
:1053A80039600023FB733B681B7803F06003202BF4
:1053B80004D0402B02D0002B0AD050E07B68D3F8F1
:1053C800B8329B683968786898470346FB734BE0A6
:1053D8003B685B78092B3CD801A252F823F000BF48
:1053E8003D540008515400085B5400084754000815
:1053F8005B5400081B540008115400085B54000853
:1054080033540008255400083968786800F0CEF94C
:1054180024E03968786800F033FB1FE03968786861
:1054280000F070FB0346FB7318E03968786800F0F9
:105438000DFC13E03968786800F03CFC0EE0396830
:10544800786800F06AFC09E03968786800F079FC4F
:1054580004E03968786800F0CFFC00BF04E03968E0
:10546800786800F0C9FC00BFFB7B18461037BD46C2
:1054780080BD00BF80B584B000AF7860396000237C
:10548800FB733B681B7803F06003202B03D0402B91
:1054980001D0002B2AD17B6893F89C32013B022B68
:1054A8001DD83B689B88DBB2012B13D87B68D3F8E7
:1054B800B8329B683968786898470346FB733B683D
:1054C800DB88002B10D1FB7B002B0DD1786800F016
:1054D8005EFD09E03968786800F08EFC04E0396800
:1054E800786800F089FC00E000BF04E0396878685B
:1054F80000F082FC00BFFB7B18461037BD4680BD1C
:1055080080B584B000AF786039600023FB733B68D6
:105518009B88BB733B681B7803F06003202B04D087
:10552800402B02D0002B0AD035E17B68D3F8B83283
:105538009B683968786898470346FB7330E13B6895
:105548005B78012B3ED0032B02D0002B77D01CE1D7
:105558007B6893F89C32022B02D0032B15D02BE0EA
:10556800BB7B002B0CD0BB7B802B09D0BB7B1946A7
:10557800786801F09FFC8021786801F09BFC20E0AE
:105588003968786800F038FC1BE03B685B88002BC2
:105598000ED1BB7B002B0BD0BB7B802B08D03B688C
:1055A800DB88002B04D1BB7B1946786801F082FCAC
:1055B800786800F0ECFC04E03968786800F01CFCBE
:1055C80000BFE7E07B6893F89C32022B02D0032BE4
:1055D80015D02DE0BB7B002B0CD0BB7B802B09D0DA
:1055E800BB7B1946786801F065FC8021786801F07A
:1055F80061FC23E03968786800F0FEFB1EE03B6838
:105608005B88002B19D1BB7B03F07F03002B04D0F0
:10561800BB7B1946786801F06CFC786800F0B7FC31
:105628007B68D3F8B8329B6839687868984704E093
:105638003968786800F0E0FB00E000BFAAE07B680A
:1056480093F89C32022B02D0032B32D097E0BB7B1D
:10565800002B07D0BB7B802B04D03968786800F01A
:10566800CBFB91E097F90E30002B0BDABB7B03F0F4
:105678007F0213469B0013449B0010337A6813443F
:1056880004330BE0BB7B03F07F0213469B001344FB
:105698009B0003F5A8737A6813440433BB60BB68A6
:1056A80000221A60BB6802221946786800F015FCCF
:1056B8006AE097F90E30002B11DABB7B03F00F027A
:1056C800796813469B0013449B000B4424331B88C2
:1056D800002B17D13968786800F08EFB54E0BB7B4B
:1056E80003F00F02796813469B0013449B000B4498
:1056F80003F5B2731B88002B04D13968786800F071
:105708007BFB41E097F90E30002B0BDABB7B03F0F3
:105718007F0213469B0013449B0010337A6813449E
:1057280004330BE0BB7B03F07F0213469B0013445A
:105738009B0003F5A8737A6813440433BB60BB7BF2
:10574800002B02D0BB7B802B03D1BB6800221A60E0
:105758000EE0BB7B1946786801F0EAFB0346002B94
:1057680003D0BB6801221A6002E0BB6800221A60FD
:10577800BB6802221946786800F0AFFB04E039687C
:10578800786800F039FB00BF04E03968786800F0F9
:1057980033FB00BF04E03968786800F02DFB00BFD8
:1057A800FB7B18461037BD4680BD000080B584B02D
:1057B80000AF7860396000233B810023FB60002341
:1057C800FB723B685B881B0A9BB2013B062B00F20D
:1057D800288101A252F823F0FD5700081558000847
:1057E800555800082B5A00082B5A0008CB590008B6
:1057F800F75900087B68D3F8B4321B687A68127CC2
:1058080007F1080110469847F86012E17B681B7C95
:10581800002B0DD17B68D3F8B8329B6A07F10802D8
:1058280010469847F860FB68013302221A7000E1BD
:105838007B68D3F8B832DB6A07F10802104698474C
:10584800F860FB68013302221A70F2E03B685B885B
:10585800DBB2052B00F2AC8001A252F823F000BFA6
:1058680081580008B5580008E95800081D59000873
:1058780051590008855900087B68D3F8B4325B6831
:10588800002B0BD07B68D3F8B4325B687A68127C43
:1058980007F1080110469847F86091E03968786880
:1058A80000F0AAFAFB7A0133FB7289E07B68D3F82F
:1058B800B4329B68002B0BD07B68D3F8B4329B685A
:1058C8007A68127C07F1080110469847F86077E07B
:1058D8003968786800F090FAFB7A0133FB726FE060
:1058E8007B68D3F8B432DB68002B0BD07B68D3F825
:1058F800B432DB687A68127C07F1080110469847D1
:10590800F8605DE03968786800F076FAFB7A013370
:10591800FB7255E07B68D3F8B4321B69002B0BD0BF
:105928007B68D3F8B4321B697A68127C07F10801E6
:1059380010469847F86043E03968786800F05CFAE8
:10594800FB7A0133FB723BE07B68D3F8B4325B69C6
:10595800002B0BD07B68D3F8B4325B697A68127C71
:1059680007F1080110469847F86029E03968786817
:1059780000F042FAFB7A0133FB7221E07B68D3F82E
:10598800B4329B69002B0BD07B68D3F8B4329B6987
:105998007A68127C07F1080110469847F8600FE012
:1059A8003968786800F028FAFB7A0133FB7207E05F
:1059B8003968786800F020FAFB7A0133FB7200BF7F
:1059C80037E07B681B7C002B09D17B68D3F8B832A1
:1059D8005B6B07F1080210469847F86029E03968C0
:1059E800786800F009FAFB7A0133FB7221E07B68E2
:1059F8001B7C002B0DD17B68D3F8B8321B6B07F1E9
:105A0800080210469847F860FB68013307221A70AD
:105A18000FE03968786800F0EFF9FB7A0133FB7220
:105A280007E03968786800F0E7F9FB7A0133FB7220
:105A380000BFFB7A002B1ED13B68DB88002B16D0F9
:105A48003B89002B0ED03B68DA883B89934228BFFC
:105A580013469BB23B813B891A46F968786800F087
:105A68003CFA09E03968786800F0C6F904E078681B
:105A780000F08DFA00E000BF1037BD4680BD00BFC2
:105A880080B584B000AF786039603B689B88002B94
:105A980030D13B68DB88002B2CD13B685B887F2B9F
:105AA80028D83B685B88DBB203F07F03FB737B6815
:105AB80093F89C32032B04D13968786800F09CF97C
:105AC8001CE07B68FA7B83F89E22FB7B194678688A
